:020000040800F2
:100000000000022091040008E1040008E104000857
:10001000E1040008E1040008E10400080000000019
:10002000000000000000000000000000E1040008E3
:10003000E104000800000000E1040008E1040008F9
:10004000E1040008E1040008E1040008E1040008FC
:1000500000000000E1040008E1040008E1040008D9
:10006000E1040008E1040008E1040008E1040008DC
:10007000E1040008E1040008E1040008E1040008CC
:10008000E1040008E1040008E1040008E1040008BC
:10009000E1040008E1040008E1040008E1040008AC
:1000A000E1040008E1040008E1040008E10400089C
:1000B000E1040008E1040008E1040008E10400088C
:1000C000E1040008E1040008E1040008E10400087C
:1000D000E1040008E1040008E1040008E10400086C
:1000E000E1040008E1040008E1040008E10400085C
:1000F000E1040008E1040008E1040008E10400084C
:10010000E1040008E1040008E1040008E10400083B
:10011000E1040008E1040008E1040008E10400082B
:10012000E1040008E1040008E1040008E10400081B
:10013000E1040008E1040008E1040008E10400080B
:10014000E1040008E1040008E1040008E1040008FB
:10015000E1040008E1040008E1040008E1040008EB
:10016000E1040008E1040008E1040008E1040008DB
:10017000E1040008E1040008E1040008E1040008CB
:10018000E1040008E1040008000000000000000095
:10019000000000000000000000000000000000005F
:0801A000E1040008E10400087D
:1001A80010B5054C237833B9044B13B10448AFF3A9
:1001B80000800123237010BDD00000200000000043
:1001C8004805000808B5034B1BB103490348AFF3C2
:1001D800008008BD00000000D40000204805000889
:1001E80080B5B8B000AF464BC7F8D430D7F8D420A4
:1001F800136843F0010313600121032000F006F99E
:10020800404A3B1D1146D022184600F08BF90323C3
:10021800C7F8B8300C23C7F8BC300123C7F8C03082
:100228000223C7F8C4300023C7F8C8300023C7F832
:10023800CC303B1D184600F07DF80D23C7F8BC30C4
:100248003B1D184600F076F80E23C7F8BC303B1D5E
:10025800184600F06FF80F23C7F8BC303B1D18464E
:1002680000F068F80023C7F8DC301CE00C210320FC
:1002780000F0AAF800F048F80D21032000F0A4F8D7
:1002880000F042F80E21032000F09EF800F03CF840
:100298000F21032000F098F800F036F8D7F8DC308A
:1002A8000133C7F8DC30D7F8DC30012BDEDD002362
:1002B800C7F8DC301FE000F027F87B6B00221A60DB
:1002C80000F022F80C23C7F8D8300BE0D7F8DC3060
:1002D800DBB21946032000F077F8D7F8D83001339D
:1002E800C7F8D830D7F8D8300F2BEFDDD7F8DC3087
:1002F8000133C7F8DC30D7F8DC30032BDBDDB1E79E
:10030800003802400000002080B483B000AF002312
:100318007B6002E07B6801337B607B68044A934220
:10032800F8DD00BF00BF0C37BD4680BC704700BF7A
:10033800DF93040080B485B000AF78600023FB60D1
:100348007B68D3F8B430FB727B68D3F8B830BB72E3
:100358007B68D3F8BC307B7201233B72FB7A082B95
:1003680003D900233B723B7A28E07A7ABB7A5B0098
:1003780002FA03F3FB60FA7A7B68123253F82230F0
:100388001A68BB7A5B00032101FA03F3DB431846C2
:10039800F97A7B68123153F8213002401A60FA7AF0
:1003A8007B68123253F822301968FA7A7B68123265
:1003B80053F82230FA680A431A603B7A1846143711
:1003C800BD4680BC7047000080B485B000AF0346CE
:1003D8000A46FB711346BB710123FB73FB790A4A7A
:1003E80052F823301A68BB79012101FA03F3184641
:1003F800FB79054951F8233042401A60FB7B1846C7
:100408001437BD4680BC70476005000880B485B0CD
:1004180000AF03460A46FB711346BB710123FB7309
:10042800BB79002B12D0012B22D1FB79154A52F847
:1004380023301A68FB79012101FA03F31846FB7986
:10044800104951F8233002431A6014E0FB790D4A31
:1004580052F823301A68FB79012101FA03F3DB43D0
:100468001846FB79074951F8233002401A6002E028
:100478000023FB7300BFFB7B18461437BD4680BCC6
:10048800704700BF840500080D488546AFF300801B
:100498000C480D490D4A002302E0D458C4500433D7
:1004A800C4188C42F9D30A4A0A4C002301E01360AD
:1004B8000432A242FBD300F011F8FFF791FEFEE7E9
:1004C8000000022000000020D0000020B005000835
:1004D800D0000020EC000020FEE7000070B50D4DB4
:1004E8000D4C641BA4100026A64209D10B4D0C4CE0
:1004F80000F026F8641BA4100026A64205D170BDA2
:1005080055F8043B98470136EEE755F8043B984701
:100518000136F2E7A8050008A8050008A8050008A4
:10052800AC0500080A44914200F1FF3300D170473E
:1005380010B511F8014B03F8014F9142F9D110BDE4
:10054800F8B500BFF8BC08BC9E467047F8B500BFB8
:08055800F8BC08BC9E46704788
:10056000140002401404024014080240140C02401B
:1005700014100240141402400000000000000000AB
:10058000000000003038024030380240303802406D
:10059000303802403038024030380240000000005D
:0805A000000000000000000053
:0405A800CD01000879
:0405AC00A901000899
:1005B000100002401004024010080240100C0240DB
:1005C0001010024010140240000000000000000063
:1005D000000000001400024014040240140802400D
:1005E000140C0240141002401414024000000000D9
:1005F0000000000000000000000002400004024073
:1006000000080240000C02400010024000140240AA
:100610000000000000000000000000002000024078
:100620002004024020080240200C0240201002401A
:100630002014024000000000000000000000000044
:10064000240002402404024024080240240C0240FA
:1006500024100240241402400000000000000000AA
:10066000000000000000000000000000000000008A
:10067000000000000000000000000000000000007A
:04000005080004915A
:00000001FF
