:020000040800F2
:100000000000022085030008D5030008D50300087E
:10001000D5030008D5030008D50300080000000040
:10002000000000000000000000000000D5030008F0
:10003000D503000800000000D5030008D503000820
:10004000D5030008D5030008D5030008D503000830
:1000500000000000D5030008D5030008D503000800
:10006000D5030008D5030008D5030008D503000810
:10007000D5030008D5030008D5030008D503000800
:10008000D5030008D5030008D5030008D5030008F0
:10009000D5030008D5030008D5030008D5030008E0
:1000A000D5030008D5030008D5030008D5030008D0
:1000B000D5030008D5030008D5030008D5030008C0
:1000C000D5030008D5030008D5030008D5030008B0
:1000D000D5030008D5030008D5030008D5030008A0
:1000E000D5030008D5030008D5030008D503000890
:1000F000D5030008D5030008D5030008D503000880
:10010000D5030008D5030008D5030008D50300086F
:10011000D5030008D5030008D5030008D50300085F
:10012000D5030008D5030008D5030008D50300084F
:10013000D5030008D5030008D5030008D50300083F
:10014000D5030008D5030008D5030008D50300082F
:10015000D5030008D5030008D5030008D50300081F
:10016000D5030008D5030008D5030008D50300080F
:10017000D5030008D5030008D5030008D5030008FF
:10018000D5030008D50300080000000000000000AF
:10019000000000000000000000000000000000005F
:0801A000D5030008D503000897
:1001A80010B5054C237833B9044B13B10448AFF3A9
:1001B80000800123237010BD6400002000000000AF
:1001C8002C0E000808B5034B1BB103490348AFF3D5
:1001D800008008BD00000000680000202C0E000808
:1001E80080B500AF014800F093F9FEE7440E00081F
:1001F80080B483B000AF0346FB710E4B1B680D4AF9
:1002080043F0807313600C4B1B680B4A43F00103E7
:10021800136000BF4FF060431B6803F00103002B1D
:10022800F8D04FF06042FB79136000BF0C37BD4631
:1002380080BC7047FCED00E0000E00E080B586B0A1
:1002480000AFF860B9607A6000237B610AE0AFF321
:1002580000800146BB685A1CBA60CAB21A707B6932
:1002680001337B617A697B689A42F0DB7B681846C8
:100278001837BD4680BD80B586B000AFF860B9605C
:100288007A6000237B6109E0BB685A1CBA601B785E
:100298001846FFF7ADFF7B6901337B617A697B689C
:1002A8009A42F1DB7B6818461837BD4680BD80B49A
:1002B80083B000AF78604FF0FF3318460C37BD4667
:1002C80080BC704780B483B000AF786039603B6809
:1002D8004FF400525A60002318460C37BD4680BCC4
:1002E800704780B483B000AF7860012318460C379C
:1002F800BD4680BC704780B485B000AFF860B96077
:100308007A60002318461437BD4680BC7047000049
:1003180080B586B000AF7860144A154BD31A7B615C
:100328007B693B61134B1B68002B02D1114B124AAE
:100338001A60104B1A687B6813443A699A4207D2CC
:1003480000F046F803460C221A604FF0FF3309E02C
:10035800084B1B68FB60074B1A687B681344054A07
:100368001360FB6818461837BD4680BD00000220A0
:100378000004000080000020980000200D488546F9
:10038800AFF300800C480D490D4A002302E0D45811
:10039800C4500433C4188C42F9D30A4A0A4C0023C7
:1003A80001E013600432A242FBD300F017F8FFF714
:1003B80017FFFEE700000220000000206400002074
:1003C800BC0E00086400002094000020FEE7000036
:1003D800014B1868704700BF0000002070B50D4D34
:1003E8000D4C641BA4100026A64209D10B4D0C4CE1
:1003F80000F018FD641BA4100026A64205D170BDAC
:1004080055F8043B98470136EEE755F8043B984702
:100418000136F2E7B40E0008B40E0008B40E000866
:10042800B80E000802440346934200D1704703F80F
:10043800011BF9E770B50E46054618B183690BB97B
:1004480000F044FAAB69AC6813B9284600F03EFAEC
:100458002C4B9C4220D16C68636EDB0705D4A389C2
:10046800980502D4A06D00F0CFFAA38919071DD50D
:100478002369DBB1013EA36816F8011F013BA360A5
:1004880039BB002B38DA22460A21284600F048F802
:10049800013011D00A2511E01B4B9C4201D1AC68F8
:1004A800DAE71A4B9C4208BFEC68D5E72146284694
:1004B80000F088F80028DDD04FF0FF35636EDA07CA
:1004C80005D4A3899B0502D4A06D00F09EFA2846A6
:1004D80070BD002B04DAA2699A4206DC0A2904D00E
:1004E80023685A1C22601970C5E72246284600F086
:1004F80017F80130BFD1DFE723680A255A1C2260AC
:100508001D70DBE7740E0008940E0008540E0008F6
:10051800024B01461868FFF78DBF00BF000000209E
:10052800F8B50E461446054618B183690BB900F0B4
:10053800CDF9214B9C422BD16C68A369A360A38998
:100548001A072FD523696BB323692068C01A63691A
:10055800F6B28342374604DC2146284600F022F9E9
:1005680030BBA368013BA36023685A1C22601E703D
:1005780063690130834204D0A389DB0706D50A2EBC
:1005880004D12146284600F00DF988B93846F8BD4F
:100598000A4B9C4201D1AC68CFE7094B9C4208BF8B
:1005A800EC68CAE72146284600F00CF80028CBD0B2
:1005B8004FF0FF37EAE700BF740E0008940E0008FA
:1005C800540E0008324B70B51D6806460C4625B11E
:1005D800AB6913B9284600F079F92E4B9C420FD12C
:1005E8006C68A389B4F90C2019072CD4DD0611D442
:1005F8000923336042F04003A3814FF0FF303EE00F
:10060800254B9C4201D1AC68EBE7244B9C4208BFC8
:10061800EC68E6E7580712D5616B41B104F1440371
:10062800994202D0304600F057FA00236363A38949
:1006380023F02403A3810023636023692360A38933
:1006480043F00803A38123694BB9A38903F42073FA
:10065800B3F5007F03D02146304600F0FDF9A089AC
:10066800B4F90C2010F001030AD00023A3606369D9
:100678005B42A361236943B910F08000BAD170BD11
:10068800810758BF6369A360F4E70020F7E700BF5C
:1006980000000020740E0008940E0008540E000894
:1006A8008A89F8B5054610070C4657D44B68002BC5
:1006B80004DC0B6C002B01DC0020F8BDE66A002E80
:1006C800FAD0002312F480522F682B6032D0606D6C
:1006D800A3895A0705D56368C01A636B0BB1236CED
:1006E800C01A00230246E66A216A2846B047431C1E
:1006F800A38906D129681D292CD8294ACA40D607BA
:1007080028D500226260D9042269226004D5421CDF
:1007180001D12B6803B96065616B2F600029CBD0CC
:1007280004F14403994202D0284600F0D5F900208C
:100738006063C2E7216A01232846B047411CC7D13C
:100748002B68002BC4D01D2B01D0162B01D12F6094
:10075800B2E7A38943F04003A381AEE70F69002FF6
:10076800AAD093070E6808BF4B690F6018BF002313
:10077800F61B8B60002E9FDD216AD4F828C0334613
:100788003A462846E047002806DCA38943F04003A0
:10079800A3814FF0FF3090E70744361AEAE700BF1D
:1007A8000100402038B50B6905460C4613B90025F1
:1007B800284638BD18B183690BB900F087F8144B87
:1007C8009C421BD16C68B4F90C30002BEFD0626EE0
:1007D800D00704D4990502D4A06D00F015F9284675
:1007E8002146FFF75DFF636EDA070546E0D4A3896B
:1007F8009B05DDD4A06D00F008F9D9E7054B9C42B4
:1008080001D1AC68DFE7044B9C4208BFEC68DAE72B
:10081800740E0008940E0008540E0008002310B54A
:100828000446C0E90033C0E904338360818143662C
:10083800C2818361194608225C30FFF7F3FD054B3E
:100848006362054BA362054BE362054B2462236395
:1008580010BD00BFBD0C0008DF0C0008170D000814
:100868003B0D0008014900F0AFB800BFAD07000814
:1008780070B568224D1E55430E4605F1740100F00F
:1008880095F9044640B10021C0E900160C30A0607B
:1008980005F16802FFF7C6FD204670BD014800F06B
:1008A800B3B800BF85000020014800F0AEB800BF13
:1008B80085000020014800F0A7B800BF860000208E
:1008C800014800F0A2B800BF8600002010B5044619
:1008D800FFF7F0FFA3691BB1BDE81040FFF7F0BFB9
:1008E800C4E912332365134B134A1B68A262A3425F
:1008F80004BF0123A361204600F020F86060204671
:1009080000F01CF8A060204600F018F80022E06013
:1009180004216068FFF782FFA06801220921FFF720
:100928007DFFE06802221221FFF778FF0123A3610F
:10093800D2E700BF500E00086D080008F8B507465A
:10094800FFF7ACFF1E4B1E68B36913B93046FFF7BB
:10095800BDFF4836D6E90134013B03D533680BB3F4
:100968003668F7E7B4F90C50D5B9164BE36004F1D3
:100978005800656600F047F8FFF796FFC4E901558F
:10098800C4E904552560A5610822294604F15C00E4
:10099800FFF748FDC4E90D55C4E912552046F8BDD6
:1009A8006834D9E704213846FFF762FF044630600F
:1009B8000028D5D1FFF778FF0C233B60EEE700BF96
:1009C800500E00080100FFFF2DE9F843064688464F
:1009D80000F148040027D4E90195B9F1010905D5CA
:1009E8002468002CF7D13846BDE8F883AB89012B81
:1009F80007D9B5F90E30013303D029463046C04730
:100A080007436835E9E770477047704770B50E4689
:100A1800B1F90E10002996B014461D4608DAB6F949
:100A28000C3000222A601A0610D44FF480630EE0BE
:100A38006A4600F0A5F90028F1DB019A02F4704239
:100A4800A2F500535A425A412A60EEE7402300209B
:100A5800236016B070BD00008B8973B59D070646EC
:100A68000C4607D504F14703236023610123636122
:100A780002B070BD01AB6A46FFF7C8FF0099054692
:100A8800304600F093F848B9B4F90C309A05EFD421
:100A980023F0030343F00203A381E3E70D4BB362A2
:100AA800A389206043F08003A381009B6361019BBD
:100AB80020615BB1B4F90E10304600F073F928B12B
:100AC800A38923F0030343F00103A381A08905430D
:100AD800A581CDE76D08000838B50546002941D045
:100AE80051F8043C0C1F002BB8BFE41800F07CF947
:100AF8001D4A136833B9636014602846BDE838405E
:100B080000F078B9A34208D9206821188B4201BFA8
:100B180019685B6809182160EDE71A465B680BB134
:100B2800A342FAD911685018A0420BD12068014499
:100B3800501883421160E0D118685B685360014423
:100B48001160DAE702D90C232B60D6E72068211858
:100B58008B4204BF19685B68636004BF0918216091
:100B68005460CAE738BD00BF8800002070B50E4E3B
:100B78000C463168054611B900F08CF83060214602
:100B8800284600F087F8431C0AD0C41C24F003044C
:100B9800A04207D0211A284600F07CF8013001D184
:100BA8004FF0FF34204670BD8C0000202DE9F04145
:100BB800CD1C25F0030508350C2D38BF0C25002D5C
:100BC800074601DBA94205D90C233B6000263046C5
:100BD800BDE8F0812E4E00F007F933681C4634BB9F
:100BE80029463846FFF7C2FF431C04464DD13468F6
:100BF8002646002E40D123683146384604EB0308C8
:100C080000F048F880453AD1216803356D1A25F07F
:100C1800030508350C2D38BF0C2529463846FFF743
:100C2800A5FF01302BD023682B4423600EE02268F7
:100C3800521B1ED40B2A16D96119A342256018BF6E
:100C48005960636808BF316062514B60384604F1EF
:100C58000B0600F0CFF826F00706231DF21AB6D0CF
:100C68009B1BA350B3E76268A3420CBF32605A6073
:100C7800ECE723466468B2E734467668B9E70C23A4
:100C88003B60384600F0B6F8A1E72560DEE700BF14
:100C98008800002038B5064D0023044608462B601E
:100CA800FFF736FB431C02D12B6803B1236038BD24
:100CB8009000002010B50C46B1F90E1000F0A0F815
:100CC8000028ABBF636DA3891B1823F48053ACBF06
:100CD8006365A38110BD2DE9F0411F468B89DB05B3
:100CE80005460C46164605D5B1F90E10022300221A
:100CF80000F068F8A389B4F90E1023F48053A38197
:100D080032463B462846BDE8F04100F017B810B51A
:100D18000C46B1F90E1000F055F8431CA38915BF15
:100D2800606523F4805343F48053A38118BFA381E3
:100D380010BDB1F90E1000F013B8000038B5074D1A
:100D480004460846114600222A601A46FFF793FA1D
:100D5800431C02D12B6803B1236038BD90000020EA
:100D680038B5064D0023044608462B60FFF79FFA66
:100D7800431C02D12B6803B1236038BD90000020CA
:100D880038B5074D00230446084611462B60FFF787
:100D980099FA431C02D12B6803B1236038BD00BF08
:100DA8009000002038B5064D0023044608462B6005
:100DB800FFF797FA431C02D12B6803B1236038BDB3
:100DC8009000002038B5074D044608461146002219
:100DD8002A601A46FFF78FFA431C02D12B6803B129
:100DE800236038BD900000200148FFF70DBE00BF0A
:100DF800840000200148FFF708BE00BF84000020DF
:100E080038B5074D04460846114600222A601A469E
:100E1800FFF714FA431C02D12B6803B1236038BDD5
:100E280090000020F8B500BFF8BC08BC9E4670478B
:0C0E3800F8B500BFF8BC08BC9E4670472F
:100E440048656C6C6F20576F726C6400040000205E
:100E5400000000000000000000000000000000008E
:100E6400000000000000000000000000000000007E
:100E7400000000000000000000000000000000006E
:100E8400000000000000000000000000000000005E
:100E9400000000000000000000000000000000004E
:100EA400000000000000000000000000000000003E
:040EB400CD01000864
:040EB800A901000884
:100EBC000400002000000000740E0008940E0008CE
:100ECC00540E0008000000000000000000000000AC
:100EDC000000000000000000000000000000000006
:100EEC0000000000000000000000000000000000F6
:100EFC0000000000000000000000000000000000E6
:100F0C0000000000000000000000000000000000D5
:040F1C0000000000D1
:040000050800038567
:00000001FF
