:020000040800F2
:1000000000000220F5010008450200084502000832
:1000100045020008450200084502000800000000F3
:100020000000000000000000000000004502000881
:1000300045020008000000004502000845020008D3
:100040004502000845020008450200084502000874
:1000500000000000450200084502000845020008B3
:100060004502000845020008450200084502000854
:100070004502000845020008450200084502000844
:100080004502000845020008450200084502000834
:100090004502000845020008450200084502000824
:1000A0004502000845020008450200084502000814
:1000B0004502000845020008450200084502000804
:1000C00045020008450200084502000845020008F4
:1000D00045020008450200084502000845020008E4
:1000E00045020008450200084502000845020008D4
:1000F00045020008450200084502000845020008C4
:1001000045020008450200084502000845020008B3
:1001100045020008450200084502000845020008A3
:100120004502000845020008450200084502000893
:100130004502000845020008450200084502000883
:100140004502000845020008450200084502000873
:100150004502000845020008450200084502000863
:100160004502000845020008450200084502000853
:100170004502000845020008450200084502000843
:1001800045020008450200080000000000000000D1
:10019000000000000000000000000000000000005F
:0801A0004502000845020008B9
:1001A80010B5054C237833B9044B13B10448AFF3A9
:1001B80000800123237010BD000000200000000013
:1001C8009002000808B5034B1BB103490348AFF37D
:1001D800008008BD00000000040000209002000814
:1001E8004FF000525368002BFCD0FEE70D488546BF
:1001F800AFF300800C480D490D4A002302E0D458A3
:10020800C4500433C4188C42F9D30A4A0A4C002358
:1002180001E013600432A242FBD300F011F8FFF7AB
:10022800DFFFFEE7000002200000002000000020A1
:10023800B0020008000000201C000020FEE70000BB
:1002480070B50D4D0D4C641BA4100026A64209D1B3
:100258000B4D0C4C00F018F8641BA4100026A642A5
:1002680005D170BD55F8043B98470136EEE755F8BF
:10027800043B98470136F2E7A8020008A8020008E4
:10028800A8020008AC020008F8B500BFF8BC08BC1A
:100298009E467047F8B500BFF8BC08BC9E4670473C
:0402A800CD0100087C
:0402AC00A90100089C
:04000005080001F5F9
:00000001FF
