:020000040800F2
:1000000000000220A1020008F1020008F10200082D
:10001000F1020008F1020008F102000800000000EF
:10002000000000000000000000000000F1020008D5
:10003000F102000800000000F1020008F1020008CF
:10004000F1020008F1020008F1020008F1020008C4
:1000500000000000F1020008F1020008F1020008AF
:10006000F1020008F1020008F1020008F1020008A4
:10007000F1020008F1020008F1020008F102000894
:10008000F1020008F1020008F1020008F102000884
:10009000F1020008F1020008F1020008F102000874
:1000A000F1020008F1020008F1020008F102000864
:1000B000F1020008F1020008F1020008F102000854
:1000C000F1020008F1020008F1020008F102000844
:1000D000F1020008F1020008F1020008F102000834
:1000E000F1020008F1020008F1020008F102000824
:1000F000F1020008F1020008F1020008F102000814
:10010000F1020008F1020008F1020008F102000803
:10011000F1020008F1020008F1020008F1020008F3
:10012000F1020008F1020008F1020008F1020008E3
:10013000F1020008F1020008F1020008F1020008D3
:10014000F1020008F1020008F1020008F1020008C3
:10015000F1020008F1020008F1020008F1020008B3
:10016000F1020008F1020008F1020008F1020008A3
:10017000F1020008F1020008F1020008F102000893
:10018000F1020008F1020008000000000000000079
:10019000000000000000000000000000000000005F
:0801A000F1020008F102000861
:1001A80010B5054C237833B9044B13B10448AFF3A9
:1001B80000800123237010BD000000200000000013
:1001C8003C03000808B5034B1BB103490348AFF3D0
:1001D800008008BD00000000040000203C03000867
:1001E80080B487B000AF274B7B61274B3B61274B1F
:1001F800FB60274BBB60274B7B607B691B6843F424
:1002080080327B691A6000BF7B691B6803F4003386
:10021800002BF9D03B691B6843F001023B691A6067
:100228003B691B6843F480023B691A603B691B68A1
:1002380023F080723B691A603B691B6843F00072C7
:100248003B691A603B691B6843F080623B691A602E
:10025800FB681B6843F00102FB681A60BB681B68F7
:1002680023F44032BB681A60BB681B6843F4003251
:10027800BB681A607B681B6823F00F027B681A60F2
:10028800FEE700BF0038024008380240303802401C
:1002980000000240240002400D488546AFF300806C
:1002A8000C480D490D4A002302E0D458C4500433C9
:1002B800C4188C42F9D30A4A0A4C002301E013609F
:1002C8000432A242FBD300F011F8FFF789FFFEE7E2
:1002D8000000022000000020000000205C0300084D
:1002E800000000201C000020FEE7000070B50D4D46
:1002F8000D4C641BA4100026A64209D10B4D0C4CD2
:1003080000F018F8641BA4100026A64205D170BDA1
:1003180055F8043B98470136EEE755F8043B9847F3
:100328000136F2E754030008540300085403000898
:1003380058030008F8B500BFF8BC08BC9E467047D3
:0C034800F8B500BFF8BC08BC9E4670472A
:04035400CD010008CF
:04035800A9010008EF
:04000005080002A14C
:00000001FF
