:020000040800F2
:100000000000022051050008A1050008A105000814
:10001000A1050008A1050008A105000800000000D6
:10002000000000000000000000000000A105000822
:10003000A105000800000000A1050008A1050008B6
:10004000A1050008A1050008A1050008A1050008F8
:1000500000000000A1050008A1050008A105000896
:10006000A1050008A1050008A1050008A1050008D8
:10007000A1050008A1050008A1050008A1050008C8
:10008000A1050008A1050008A1050008A1050008B8
:10009000A1050008A1050008A1050008A1050008A8
:1000A000A1050008A1050008A1050008A105000898
:1000B000A1050008A1050008A1050008A105000888
:1000C000A1050008A1050008A1050008A105000878
:1000D000A1050008A1050008A1050008A105000868
:1000E000A1050008A1050008A1050008A105000858
:1000F000A1050008A1050008A1050008A105000848
:10010000A1050008A1050008A1050008A105000837
:10011000A1050008A1050008A1050008A105000827
:10012000A1050008A1050008A1050008A105000817
:10013000A1050008A1050008A1050008A105000807
:10014000A1050008A1050008A1050008A1050008F7
:10015000A1050008A1050008A1050008A1050008E7
:10016000A1050008A1050008A1050008A1050008D7
:10017000A1050008A1050008A1050008A1050008C7
:10018000A1050008A1050008000000000000000013
:10019000000000000000000000000000000000005F
:0801A000A1050008A1050008FB
:1001B00010B5054C237833B9044B13B10448AFF3A1
:1001C00000800123237010BD80000020000000008B
:1001D0000016000808B5034B1BB103490348AFF3F1
:1001E000008008BD00000000840000200016000808
:1001F00001F0FF01102A2BDB10F0070F08D010F8D8
:10020000013B013A8B422DD010F0070F42B3F6D1DB
:10021000F0B441EA012141EA014122F007047FF0F4
:1002200000070023F0E80256083C85EA010586EA4B
:10023000010685FA47F5A3FA87F586FA47F6A5FA87
:1002400087F68EB9EED1F0BC01F0FF0102F0070293
:1002500032B110F8013B013A83EA010313B1F8D13E
:100260000020704701387047002D06BF354603381F
:10027000073815F0010F07D1013015F4807F02BF58
:10028000013015F4C03F0130F0BC0138704700BFA9
:1002900080B58EB000AF7860396000237B630023A7
:1002A0003B630023FB620023BB6200237B620023CD
:1002B0003B620123FB6154E0FB697B61FB69013315
:1002C000BB6147E07A69BB6913403B617A69BB69EE
:1002D0001343FB607A69BB695340BB603A693B6872
:1002E0009A4209DA3A697B6B9A4205DD3B697B6386
:1002F000BB6A0133BB6204E0BB6A002B01D100235F
:100300007B63FA683B689A4209DAFA683B6B9A4267
:1003100005DDFB683B637B6A01337B6204E07B6A3B
:10032000002B01D100233B63BA683B689A4209DA8B
:10033000BA68FB6A9A4205DD3B6A01333B62BB68DF
:10034000FB6204E03B6A002B01D10023FB62BB6926
:100350000133BB61BA697B689A42B3DDFB69013343
:10036000FB61FA697B689A42A6DB0C4800F0D2F97F
:10037000796B0B4800F048F9396B094800F044F9F3
:10038000F96A074800F040F9064B1A229A60064BBA
:100390000A221A6000BF3837BD4680BD1816000813
:1003A00030160008000000201800002080B582B040
:1003B00000AF0C237B6003233B6039687868FFF74C
:1003C00067FFFEE780B483B000AF0346FB710E4BBE
:1003D0001B680D4A43F0807313600C4B1B680B4A7B
:1003E00043F00103136000BF4FF060431B6803F04C
:1003F0000103002BF8D04FF06042FB79136000BF7F
:100400000C37BD4680BC7047FCED00E0000E00E0FC
:1004100080B586B000AFF860B9607A6000237B6178
:100420000AE0AFF300800146BB685A1CBA60CAB24A
:100430001A707B6901337B617A697B689A42F0DBD1
:100440007B6818461837BD4680BD80B586B000AFC2
:10045000F860B9607A6000237B6109E0BB685A1CD0
:10046000BA601B781846FFF7ADFF7B6901337B61EB
:100470007A697B689A42F1DB7B6818461837BD467B
:1004800080BD80B483B000AF78604FF0FF33184672
:100490000C37BD4680BC704780B483B000AF786035
:1004A00039603B684FF400525A60002318460C37FD
:1004B000BD4680BC704780B483B000AF7860012334
:1004C00018460C37BD4680BC704780B485B000AF7D
:1004D000F860B9607A60002318461437BD4680BCC6
:1004E0007047000080B586B000AF7860144A154BA5
:1004F000D31A7B617B693B61134B1B68002B02D1D4
:10050000114B124A1A60104B1A687B6813443A69FF
:100510009A4207D200F046F803460C221A604FF0C8
:10052000FF3309E0084B1B68FB60074B1A687B68C8
:100530001344054A1360FB6818461837BD4680BD52
:1005400000000220000400009C000020B0000020F9
:100550000D488546AFF300800C480D490D4A002335
:1005600002E0D458C4500433C4188C42F9D30A4A68
:100570000A4C002301E013600432A242FBD300F0D6
:1005800017F8FFF713FFFEE700000220000000202D
:1005900080000020D416000880000020B000002059
:1005A000FEE70000014B1868704700BF1C000020E8
:1005B00070B50D4D0D4C641BA4100026A64209D148
:1005C0000B4D0C4C01F01CF8641BA4100026A64235
:1005D00005D170BD55F8043B98470136EEE755F854
:1005E000043B98470136F2E7CC160008CC16000809
:1005F000CC160008D016000802440346934200D1EE
:10060000704703F8011BF9E70FB40A4B13B51C68D8
:1006100024B1A36913B9204600F05AFA05AB049A35
:10062000A1680193204600F05FFC02B0BDE81040D5
:1006300004B070471C00002070B50E46054618B186
:1006400083690BB900F044FAAB69AC6813B928466A
:1006500000F03EFA2C4B9C4220D16C68636EDB07A5
:1006600005D4A389980502D4A06D00F0CFFAA38920
:1006700019071DD52369DBB1013EA36816F8011FD8
:10068000013BA36039BB002B38DA22460A212846F9
:1006900000F048F8013011D00A2511E01B4B9C42B4
:1006A00001D1AC68DAE71A4B9C4208BFEC68D5E789
:1006B0002146284600F088F80028DDD04FF0FF35AD
:1006C000636EDA0705D4A3899B0502D4A06D00F000
:1006D0009EFA284670BD002B04DAA2699A4206DC15
:1006E0000A2904D023685A1C22601970C5E72246E3
:1006F000284600F017F80130BFD1DFE723680A254C
:100700005A1C22601D70DBE7581600087816000896
:1007100038160008024B01461868FFF78DBF00BF6E
:100720001C000020F8B50E461446054618B1836932
:100730000BB900F0CDF9214B9C422BD16C68A36919
:10074000A360A3891A072FD523696BB32369206897
:10075000C01A6369F6B28342374604DC2146284654
:1007600000F022F930BBA368013BA36023685A1C48
:1007700022601E7063690130834204D0A389DB07C5
:1007800006D50A2E04D12146284600F00DF988B975
:100790003846F8BD0A4B9C4201D1AC68CFE7094B03
:1007A0009C4208BFEC68CAE72146284600F00CF8D6
:1007B0000028CBD04FF0FF37EAE700BF58160008FB
:1007C0007816000838160008324B70B51D680646CA
:1007D0000C4625B1AB6913B9284600F079F92E4BC8
:1007E0009C420FD16C68A389B4F90C2019072CD452
:1007F000DD0611D40923336042F04003A3814FF09A
:10080000FF303EE0254B9C4201D1AC68EBE7244B26
:100810009C4208BFEC68E6E7580712D5616B41B10E
:1008200004F14403994202D0304600F057FA002305
:100830006363A38923F02403A381002363602369F6
:100840002360A38943F00803A38123694BB9A389DB
:1008500003F42073B3F5007F03D02146304600F047
:10086000FDF9A089B4F90C2010F001030AD000238F
:10087000A36063695B42A361236943B910F0800000
:10088000BAD170BD810758BF6369A360F4E7002047
:10089000F7E700BF1C000020581600087816000873
:1008A000381600088A89F8B5054610070C4657D453
:1008B0004B68002B04DC0B6C002B01DC0020F8BD26
:1008C000E66A002EFAD0002312F480522F682B60C3
:1008D00032D0606DA3895A0705D56368C01A636B6F
:1008E0000BB1236CC01A00230246E66A216A28462F
:1008F000B047431CA38906D129681D292CD8294A51
:10090000CA40D60728D500226260D9042269226035
:1009100004D5421C01D12B6803B96065616B2F605F
:100920000029CBD004F14403994202D0284600F0BC
:10093000D5F900206063C2E7216A01232846B04749
:10094000411CC7D12B68002BC4D01D2B01D0162B06
:1009500001D12F60B2E7A38943F04003A381AEE742
:100960000F69002FAAD093070E6808BF4B690F606C
:1009700018BF0023F61B8B60002E9FDD216AD4F880
:1009800028C033463A462846E047002806DCA389BB
:1009900043F04003A3814FF0FF3090E70744361A3D
:1009A000EAE700BF0100402038B50B6905460C4658
:1009B00013B90025284638BD18B183690BB900F07A
:1009C00087F8144B9C421BD16C68B4F90C30002B97
:1009D000EFD0626ED00704D4990502D4A06D00F068
:1009E00015F928462146FFF75DFF636EDA070546D5
:1009F000E0D4A3899B05DDD4A06D00F008F9D9E708
:100A0000054B9C4201D1AC68DFE7044B9C4208BF18
:100A1000EC68DAE75816000878160008381600085F
:100A2000002310B50446C0E90033C0E904338360F5
:100A300081814366C2818361194608225C30FFF7D9
:100A4000DBFD054B6362054BA362054BE362054B7F
:100A50002462236310BD00BF91140008B314000882
:100A6000EB1400080F150008014900F0AFB800BFF3
:100A7000A909000870B568224D1E55430E4605F1C0
:100A8000740100F095F9044640B10021C0E9001658
:100A90000C30A06005F16802FFF7AEFD204670BD86
:100AA000014800F0B3B800BFA1000020014800F0E9
:100AB000AEB800BFA1000020014800F0A7B800BFF9
:100AC000A2000020014800F0A2B800BFA200002050
:100AD00010B50446FFF7F0FFA3691BB1BDE8104055
:100AE000FFF7F0BFC4E912332365134B134A1B68A9
:100AF000A262A34204BF0123A361204600F020F8B4
:100B00006060204600F01CF8A060204600F018F855
:100B10000022E06004216068FFF782FFA0680122E4
:100B20000921FFF77DFFE06802221221FFF778FF1D
:100B30000123A361D2E700BF34160008690A000848
:100B4000F8B50746FFF7ACFF1E4B1E68B36913B933
:100B50003046FFF7BDFF4836D6E90134013B03D5E7
:100B600033680BB33668F7E7B4F90C50D5B9164BB8
:100B7000E36004F15800656600F047F8FFF796FF60
:100B8000C4E90155C4E904552560A5610822294638
:100B900004F15C00FFF730FDC4E90D55C4E91255BE
:100BA0002046F8BD6834D9E704213846FFF762FFD4
:100BB000044630600028D5D1FFF778FF0C233B6056
:100BC000EEE700BF341600080100FFFF2DE9F843EF
:100BD0000646884600F148040027D4E90195B9F19A
:100BE000010905D52468002CF7D13846BDE8F88303
:100BF000AB89012B07D9B5F90E30013303D0294653
:100C00003046C04707436835E9E77047704770478B
:100C100070B50E46B1F90E10002996B014461D4667
:100C200008DAB6F90C3000222A601A0610D44FF404
:100C300080630EE06A4600F091FC0028F1DB019A27
:100C400002F47042A2F500535A425A412A60EEE77C
:100C500040230020236016B070BD00008B8973B55F
:100C60009D0706460C4607D504F147032360236120
:100C70000123636102B070BD01AB6A46FFF7C8FF94
:100C800000990546304600F093F848B9B4F90C30A5
:100C90009A05EFD423F0030343F00203A381E3E7B3
:100CA0000D4BB362A389206043F08003A381009BB6
:100CB0006361019B20615BB1B4F90E10304600F016
:100CC0005FFC28B1A38923F0030343F00103A38150
:100CD000A0890543A581CDE7690A000838B5054616
:100CE000002941D051F8043C0C1F002BB8BFE41878
:100CF00000F068FC1D4A136833B96360146028462D
:100D0000BDE8384000F064BCA34208D9206821182F
:100D10008B4201BF19685B6809182160EDE71A462C
:100D20005B680BB1A342FAD911685018A0420BD1ED
:100D300020680144501883421160E0D118685B6854
:100D4000536001441160DAE702D90C232B60D6E727
:100D5000206821188B4204BF19685B68636004BF78
:100D6000091821605460CAE738BD00BFA400002004
:100D700070B50E4E0C463168054611B900F078FB8F
:100D800030602146284600F073FB431C0AD0C41C87
:100D900024F00304A04207D0211A284600F068FB83
:100DA000013001D14FF0FF34204670BDA800002073
:100DB0002DE9F041CD1C25F0030508350C2D38BF79
:100DC0000C25002D074601DBA94205D90C233B6009
:100DD00000263046BDE8F0812E4E00F0F3FB33686C
:100DE0001C4634BB29463846FFF7C2FF431C044665
:100DF0004DD134682646002E40D12368314638460E
:100E000004EB030800F034FB80453AD12168033538
:100E10006D1A25F0030508350C2D38BF0C25294621
:100E20003846FFF7A5FF01302BD023682B44236001
:100E30000EE02268521B1ED40B2A16D96119A34258
:100E4000256018BF5960636808BF316062514B600C
:100E5000384604F10B0600F0BBFB26F00706231D05
:100E6000F21AB6D09B1BA350B3E76268A3420CBF33
:100E700032605A60ECE723466468B2E7344676682D
:100E8000B9E70C233B60384600F0A2FBA1E72560E0
:100E9000DEE700BFA40000209368013B002B10B4E4
:100EA000936007DA9469A34201DB0A2902D110BCDE
:100EB000FFF738BC1368581C10601970084610BC46
:100EC0007047F8B506460F461446D518AC4201D116
:100ED000002007E014F8011B3A463046FFF7DCFF1C
:100EE000431CF3D1F8BD00002DE9F04F0D469DB035
:100EF00014469846064618B183690BB9FFF7E8FD1A
:100F0000894B9D421BD175686B6ED90705D4AB899F
:100F10009A0502D4A86DFFF779FEAB891B0701D5AE
:100F20002B69EBB929463046FFF74EFCC0B16B6E1A
:100F3000DC070ED54FF0FF301DB0BDE8F08F7B4BC6
:100F40009D4201D1B568DFE7794B9D4208BFF56846
:100F5000DAE7AB899805EDD4A86DFFF758FEE9E70D
:100F60000023099320238DF82930CDF80C803023FD
:100F7000DFF8C0818DF82A304FF0010923469A46E8
:100F800013F8012B0AB1252AF9D1BAEB040B0BD0C7
:100F90005B46224629463046FFF793FF013000F0BA
:100FA000AA80099A5A4409929AF80030002B00F05E
:100FB000A28000234FF0FF32CDE905230AF1010A98
:100FC000049307938DF853301A935446052214F86E
:100FD000011B5848FFF70CF9049AD8B9D10644BF51
:100FE00020238DF85330130744BF2B238DF8533043
:100FF0009AF800302A2B15D0079A544600204FF05B
:101000000A0C214611F8013B303B092B4ED9B0B1F7
:10101000079214E0A0EB080309FA03F313430493C7
:10102000A246D2E7039B191D1B680391002BBBBF8F
:101030005B4242F0020207930793B8BF0492237801
:101040002E2B0CD163782A2B35D1039B1A1D1B68DC
:101050000392002BB8BF4FF0FF3302340593DFF843
:10106000D8A0217803225046FFF7C2F840B14023B0
:10107000A0EB0A0003FA00F0049B0343013404933D
:1010800014F8011B2D488DF828100622FFF7B0F840
:1010900000283FD02A4B1BBB039B073323F00703D9
:1010A00008330393099B3B44099367E70CFB023227
:1010B0000C460120A5E700230134059319464FF0A3
:1010C0000A0C204610F8012B303A092A03D9002BCC
:1010D000C5D00591C3E70CFB012104460123F0E7CD
:1010E00003AB00932A46174B04A93046AFF30080A8
:1010F0000746781CD6D16B6ED90705D4AB899A0503
:1011000002D4A86DFFF783FDAB895B063FF512AFF4
:10111000099811E703AB00932A460A4B04A930460D
:1011200000F080F8E4E700BF5816000878160008C1
:1011300038160008981600089E160008A216000827
:1011400000000000C30E00082DE9F047164699463E
:101150008A680B69DDF820809342B8BF134633607C
:1011600091F8432007460C460AB1013333602368E7
:10117000990642BF336802333360256815F00605CF
:1011800006D104F1190AE36832689B1AAB4226DCE7
:1011900094F84320131E226818BF012392062BD413
:1011A00004F1430249463846C04701301ED0236847
:1011B000E568326803F00603042B08BFAD1AA36884
:1011C00022690CBF25EAE57500259342C4BF9B1A2E
:1011D000ED1800261A34B5421AD1002008E0012388
:1011E000524649463846C047013003D14FF0FF30E0
:1011F000BDE8F0870135C6E7E1185A1C302081F8B8
:101200004300224494F8451082F843100233C7E7A4
:101210000123224649463846C0470130E6D0013610
:10122000D9E700002DE9FF470F7E0C9D782F9146EE
:1012300080460C469A4601F1430207D8622F0AD82D
:10124000002F00F0D880582F00F0A38004F1420551
:1012500084F842703AE0A7F16303152BF6D801A198
:1012600051F823F0BD120008D11200084D120008F9
:101270004D1200084D1200084D120008D11200084E
:101280004D1200084D1200084D1200084D120008C2
:10129000DD13000801130008BF1300084D120008F9
:1012A0004D120008FF1300084D120008011300083A
:1012B0004D1200084D120008C71300082B681A1DB4
:1012C0001B682A6004F1420584F842300123A3E040
:1012D00020682968060601F104030AD50E682B6010
:1012E000002E03DA2D23764284F843305E480A2329
:1012F00019E00E682B6010F0400F18BF36B2EFE710
:101300002B682068191D2960010601D51E6802E0BE
:101310004606FBD51E8854486F2F0CBF08230A23AE
:10132000002184F843106568A560002DA2BF2168E4
:1013300021F0040121600EB9002D4DD01546B6FBF9
:10134000F3F103FB1167C75D05F8017D3746BB422A
:101350000E46F4D9082B0BD12368DE0708D5236984
:1013600061689942DEBF302305F8013C05F1FF3585
:10137000521B2261CDF800A04B4603AA21464046ED
:10138000FFF7E2FE01304CD14FF0FF3004B0BDE872
:10139000F087354881F845702968236851F8046B57
:1013A00029601D0614D5DF0744BF43F020032360E6
:1013B0001EB9236823F0200323601023B0E72368BD
:1013C00043F0200323607823284884F84530E3E77E
:1013D000590648BFB6B2E6E71546BBE72B68266854
:1013E0006169181D286035061B6801D5196002E087
:1013F0007006FBD51980002323611546BAE72B68D8
:101400001A1D2A601D68626800212846FEF7F0FE5A
:1014100008B1401B606063682361002384F8433097
:10142000A8E723692A4649464046D0470130ABD059
:1014300023689B0713D4E068039B9842B8BF184603
:10144000A4E70123324649464046D04701309BD0AD
:101450000135E36803995B1AAB42F2DCEBE7002548
:1014600004F11906F5E700BFA9160008BA1600082E
:1014700038B5064D0023044608462B60FFF732F8C6
:10148000431C02D12B6803B1236038BDAC0000209F
:1014900010B50C46B1F90E1000F0A0F80028ABBF53
:1014A000636DA3891B1823F48053ACBF6365A381CC
:1014B00010BD2DE9F0411F468B89DB0505460C4622
:1014C000164605D5B1F90E100223002200F068F887
:1014D000A389B4F90E1023F48053A38132463B460E
:1014E0002846BDE8F04100F017B810B50C46B1F938
:1014F0000E1000F055F8431CA38915BF606523F456
:10150000805343F48053A38118BFA38110BDB1F968
:101510000E1000F013B8000038B5074D0446084619
:10152000114600222A601A46FEF78FFF431C02D1A3
:101530002B6803B1236038BDAC00002038B5064DE0
:101540000023044608462B60FEF79BFF431C02D194
:101550002B6803B1236038BDAC00002038B5074DBF
:1015600000230446084611462B60FEF795FF431CF6
:1015700002D12B6803B1236038BD00BFAC0000204E
:1015800038B5064D0023044608462B60FEF793FF4E
:10159000431C02D12B6803B1236038BDAC0000208E
:1015A00038B5074D04460846114600222A601A46FF
:1015B000FEF78BFF431C02D12B6803B1236038BDBB
:1015C000AC0000200148FFF721BB00BFA0000020B5
:1015D0000148FFF71CBB00BFA000002038B5074D35
:1015E00004460846114600222A601A46FEF710FFFC
:1015F000431C02D12B6803B1236038BDAC0000202E
:10160000F8B500BFF8BC08BC9E467047F8B500BFEF
:08161000F8BC08BC9E467047BF
:101618002048656C6C6F20576F726C642048414895
:10162800414841203A00000025640A0020000020BB
:1016380000000000000000000000000000000000A2
:101648000000000000000000000000000000000092
:101658000000000000000000000000000000000082
:101668000000000000000000000000000000000072
:101678000000000000000000000000000000000062
:101688000000000000000000000000000000000052
:10169800232D302B2000686C4C0065666745464753
:1016A80000303132333435363738394142434445D6
:1016B8004600303132333435363738396162636445
:0416C8006566000053
:0416CC00D50100083C
:0416D000B10100085C
:1016D4001E00000017000000270000001300000097
:1016E400EF000000160000005A0000002000002057
:1016F4000000000058160008781600083816000884
:1017040000000000000000000000000000000000D5
:1017140000000000000000000000000000000000C5
:1017240000000000000000000000000000000000B5
:1017340000000000000000000000000000000000A5
:101744000000000000000000000000000000000095
:040000050800055199
:00000001FF
