:020000040800F2
:1000000000000220C10300081104000811040008C8
:100010001104000811040008110400080000000089
:1000200000000000000000000000000011040008B3
:100030001104000800000000110400081104000869
:10004000110400081104000811040008110400083C
:100050000000000011040008110400081104000849
:10006000110400081104000811040008110400081C
:10007000110400081104000811040008110400080C
:1000800011040008110400081104000811040008FC
:1000900011040008110400081104000811040008EC
:1000A00011040008110400081104000811040008DC
:1000B00011040008110400081104000811040008CC
:1000C00011040008110400081104000811040008BC
:1000D00011040008110400081104000811040008AC
:1000E000110400081104000811040008110400089C
:1000F000110400081104000811040008110400088C
:10010000110400081104000811040008110400087B
:10011000110400081104000811040008110400086B
:10012000110400081104000811040008110400085B
:10013000110400081104000811040008110400084B
:10014000110400081104000811040008110400083B
:10015000110400081104000811040008110400082B
:10016000110400081104000811040008110400081B
:10017000110400081104000811040008110400080B
:100180001104000811040008000000000000000035
:10019000000000000000000000000000000000005F
:0801A00011040008110400081D
:1001A80010B5054C237833B9044B13B10448AFF3A9
:1001B80000800123237010BD000000200000000013
:1001C8005C04000808B5034B1BB103490348AFF3AF
:1001D800008008BD00000000040000205C04000846
:1001E80080B483B000AF00237B6002E07B680133FA
:1001F8007B607B68044A9342F8DD00BF00BF0C3780
:10020800BD4680BC704700BFDF93040080B586B050
:1002180000AF644B1A681368012161F356531360E9
:10022800604B1A6813686FF3565313605E4B3B615B
:100238003A69136843F0010313605C4BDB68FB60A9
:100248005B4BDB68BB605B4BDB687B60FA68136801
:1002580043F008031360BA6813686FF319631360F7
:10026800BA681368012161F319631360BA681368E7
:100278006FF39B631360BA681368012161F39B6392
:100288001360BA6813686FF31D731360BA68136854
:10029800012161F31D731360BA6813686FF39F73CC
:1002A8001360BA681368012161F39F731360002318
:1002B8007B613EE0FFF794FF7B681B68C3F3003364
:1002C800DBB283F00103D9B27A68136861F30C33A7
:1002D8001360FFF785FF7B681B68C3F34033DBB20D
:1002E80083F00103D9B27A68136861F34D33136060
:1002F800FFF776FF7B681B68C3F38033DBB283F0BC
:100308000103D9B27A68136861F38E331360FFF77B
:1003180067FF7B681B68C3F3C033DBB283F001035C
:10032800D9B27A68136861F3CF3313607B690133FC
:100338007B617B69012BBDDD00237B612EE0FFF72C
:100348004FFF7A6813686FF30C3313607A68136889
:100358006FF34D3313607A6813686FF38E3313604D
:100368007A6813686FF3CF331360FFF739FF7A6841
:10037800136843F4805313607A68136843F4005396
:1003880013607A68136843F4804313607A681368CB
:1003980043F4004313607B6901337B617B69012B64
:1003A800CDDD84E7BC04000800380240A40400083E
:1003B8008C040008740400080D488546AFF30080DB
:1003C8000C480D490D4A002302E0D458C4500433A8
:1003D800C4188C42F9D30A4A0A4C002301E013607E
:1003E8000432A242FBD300F011F8FFF70FFFFEE73B
:1003F800000002200000002000000020DC040008AB
:10040800000000201C000020FEE7000070B50D4D24
:100418000D4C641BA4100026A64209D10B4D0C4CB0
:1004280000F018F8641BA4100026A64205D170BD80
:1004380055F8043B98470136EEE755F8043B9847D2
:100448000136F2E7D4040008D4040008D4040008F4
:10045800D8040008F8B500BFF8BC08BC9E46704731
:0C046800F8B500BFF8BC08BC9E46704709
:10047400140002401404024014080240140C024008
:100484001410024014140240000002400004024010
:1004940000080240000C0240001002400014024018
:1004A40030380240303802403038024030380240A0
:1004B4003038024030380240083802400000000062
:1004C4000000000000000000000000000000000028
:0404D400CD0100084E
:0404D800A90100086E
:04000005080003C12B
:00000001FF
