:020000040800F2
:10000000000002209D030008ED030008ED03000836
:10001000ED030008ED030008ED03000800000000F8
:10002000000000000000000000000000ED030008D8
:10003000ED03000800000000ED030008ED030008D8
:10004000ED030008ED030008ED030008ED030008D0
:1000500000000000ED030008ED030008ED030008B8
:10006000ED030008ED030008ED030008ED030008B0
:10007000ED030008ED030008ED030008ED030008A0
:10008000ED030008ED030008ED030008ED03000890
:10009000ED030008ED030008ED030008ED03000880
:1000A000ED030008ED030008ED030008ED03000870
:1000B000ED030008ED030008ED030008ED03000860
:1000C000ED030008ED030008ED030008ED03000850
:1000D000ED030008ED030008ED030008ED03000840
:1000E000ED030008ED030008ED030008ED03000830
:1000F000ED030008ED030008ED030008ED03000820
:10010000ED030008ED030008ED030008ED0300080F
:10011000ED030008ED030008ED030008ED030008FF
:10012000ED030008ED030008ED030008ED030008EF
:10013000ED030008ED030008ED030008ED030008DF
:10014000ED030008ED030008ED030008ED030008CF
:10015000ED030008ED030008ED030008ED030008BF
:10016000ED030008ED030008ED030008ED030008AF
:10017000ED030008ED030008ED030008ED0300089F
:10018000ED030008ED03000800000000000000007F
:10019000000000000000000000000000000000005F
:0801A000ED030008ED03000867
:1001A80010B5054C237833B9044B13B10448AFF3A9
:1001B80000800123237010BD000000200000000013
:1001C8003804000808B5034B1BB103490348AFF3D3
:1001D800008008BD0000000004000020380400086A
:1001E80080B483B000AF00237B6002E07B680133FA
:1001F8007B607B68044A9342F8DD00BF00BF0C3780
:10020800BD4680BC704700BFDF93040080B584B052
:1002180000AF5D4BBB605D4B7B605D4B3B60BB687B
:100228001B6843F00802BB681A607B681B6823F0F0
:1002380040727B681A607B681B6843F080727B6839
:100248001A607B681B6823F040627B681A607B68D1
:100258001B6843F080627B681A607B681B6823F028
:1002680040527B681A607B681B6843F080527B6849
:100278001A607B681B6823F040427B681A607B68C1
:100288001B6843F080427B681A603B681B6823F454
:1002980080523B681A603B681B6823F400523B6835
:1002A8001A603B681B6823F480423B681A603B680D
:1002B8001B6823F400423B681A600023FB6022E0BD
:1002C800FFF78EFF3B681B6883F480523B681A6017
:1002D800FFF786FF3B681B6883F400523B681A608F
:1002E800FFF77EFF3B681B6883F480423B681A6017
:1002F800FFF776FF3B681B6883F400423B681A608F
:10030800FB680133FB60FB68012BD9DD0023FB6030
:1003180036E0FFF765FF3B681B6823F480523B68B3
:100328001A603B681B6823F400523B681A603B68FC
:100338001B6823F480423B681A603B681B6823F4FF
:1003480000423B681A60FFF74BFF3B681B6843F4A9
:1003580080523B681A603B681B6843F400523B6854
:100368001A603B681B6843F480423B681A603B682C
:100378001B6843F400423B681A60FB680133FB606A
:10038800FB68012BC5DD98E730380240000C0240BD
:10039800140C02400D488546AFF300800C480D4907
:1003A8000D4A002302E0D458C4500433C4188C42C8
:1003B800F9D30A4A0A4C002301E013600432A2422E
:1003C800FBD300F011F8FFF721FFFEE70000022041
:1003D8000000002000000020580400080000002051
:1003E8001C000020FEE7000070B50D4D0D4C641B8D
:1003F800A4100026A64209D10B4D0C4C00F018F8A9
:10040800641BA4100026A64205D170BD55F8043B14
:1004180098470136EEE755F8043B98470136F2E76E
:100428005004000850040008500400085404000850
:10043800F8B500BFF8BC08BC9E467047F8B500BFC9
:08044800F8BC08BC9E46704799
:04045000CD010008D2
:04045400A9010008F2
:040000050800039D4F
:00000001FF
