:020000040800F2
:1000000000000220E50B0008350C0008350C000844
:10001000350C0008350C0008350C00080000000005
:10002000000000000000000000000000350C000887
:10003000350C000800000000350C0008350C0008E5
:10004000350C0008350C0008350C0008350C00088C
:1000500000000000350C0008D9030008350C00082A
:10006000350C0008350C0008350C0008350C00086C
:10007000350C0008350C0008350C0008350C00085C
:10008000350C0008350C0008350C0008350C00084C
:10009000350C0008350C0008350C0008350C00083C
:1000A000350C0008350C0008350C0008350C00082C
:1000B000350C0008350C0008350C0008350C00081C
:1000C000350C0008350C0008350C0008350C00080C
:1000D000350C0008350C0008350C0008350C0008FC
:1000E000350C0008350C0008350C0008350C0008EC
:1000F000350C0008350C0008350C0008350C0008DC
:10010000350C0008350C0008350C0008350C0008CB
:10011000350C0008350C0008350C0008350C0008BB
:10012000350C0008350C0008350C0008350C0008AB
:10013000350C0008350C0008350C0008350C00089B
:10014000350C0008350C0008350C0008350C00088B
:10015000350C0008350C0008350C0008350C00087B
:10016000350C0008350C0008350C0008350C00086B
:10017000350C0008350C0008350C0008350C00085B
:10018000350C0008350C00080000000000000000DD
:10019000000000000000000000000000000000005F
:0801A000350C0008350C0008C5
:1001B00010B5054C237833B9044B13B10448AFF3A1
:1001C00000800123237010BD6400002000000000A7
:1001D000941C000808B5034B1BB103490348AFF357
:1001E000008008BD0000000068000020941C00088A
:1001F00001F0FF01102A2BDB10F0070F08D010F8D8
:10020000013B013A8B422DD010F0070F42B3F6D1DB
:10021000F0B441EA012141EA014122F007047FF0F4
:1002200000070023F0E80256083C85EA010586EA4B
:10023000010685FA47F5A3FA87F586FA47F6A5FA87
:1002400087F68EB9EED1F0BC01F0FF0102F0070293
:1002500032B110F8013B013A83EA010313B1F8D13E
:100260000020704701387047002D06BF354603381F
:10027000073815F0010F07D1013015F4807F02BF58
:10028000013015F4C03F0130F0BC0138704700BFA9
:1002900090B595B004AF03233B620C237B6201232E
:1002A000BB620223FB6200233B6300237B636C463B
:1002B00007F1300393E8070084E8070007F1200303
:1002C0000FCB00F0CBF90D237B626C4607F13003B6
:1002D00093E8070084E8070007F120030FCB00F044
:1002E000BDF90E237B626C4607F1300393E80700EB
:1002F00084E8070007F120030FCB00F0AFF90F23CC
:100300007B626C4607F1300393E8070084E807003E
:1003100007F120030FCB00F0A1F900237B6000233D
:10032000BB600523FB6002233B6100237B6100234C
:10033000BB616C4607F1140393E8070084E80700EB
:100340003B1D0FCB00F08AF9012000F0EFFB0122EA
:100350000621002000F0A6FB0021002000F01EF97D
:10036000194800F021FD194B1B78DBB2002B26D079
:1003700000F060F9164B1B680133154A1360144BEB
:100380001B681946134800F089FC0C2387F83F309E
:100390000EE000F039F997F83F301946032000F0DD
:1003A00039FB00F031F997F83F30013387F83F30DF
:1003B00097F83F300F2BECD9044B00221A70012123
:1003C000002000F0EBF8C7E7AC1C0008800000201C
:1003D00084000020C81C000880B500AF094B1B68D2
:1003E0000133084A1360074B1B681946064800F0A2
:1003F00055FC064B01221A70002000F02DFB00BFB7
:1004000080BD00BF88000020E41C000880000020A0
:1004100080B483B000AF0346FB710E4B1B680D4ADE
:1004200043F0807313600C4B1B680B4A43F00103CD
:10043000136000BF4FF060431B6803F00103002B03
:10044000F8D04FF06042FB79136000BF0C37BD4617
:1004500080BC7047FCED00E0000E00E080B586B087
:1004600000AFF860B9607A6000237B610AE0AFF307
:1004700000800146BB685A1CBA60CAB21A707B6918
:1004800001337B617A697B689A42F0DB7B681846AE
:100490001837BD4680BD80B586B000AFF860B96042
:1004A0007A6000237B6109E0BB685A1CBA601B7844
:1004B0001846FFF7ADFF7B6901337B617A697B6882
:1004C0009A42F1DB7B6818461837BD4680BD80B480
:1004D00083B000AF78604FF0FF3318460C37BD464D
:1004E00080BC704780B483B000AF786039603B68EF
:1004F0004FF400525A60002318460C37BD4680BCAA
:10050000704780B483B000AF7860012318460C3781
:10051000BD4680BC704780B485B000AFF860B9605C
:100520007A60002318461437BD4680BC704700002F
:1005300080B586B000AF7860144A154BD31A7B6142
:100540007B693B61134B1B68002B02D1114B124A94
:100550001A60104B1A687B6813443A699A4207D2B2
:1005600000F06AFB03460C221A604FF0FF3309E0EB
:10057000084B1B68FB60074B1A687B681344054AED
:100580001360FB6818461837BD4680BD0000022086
:10059000000400008C000020A000002080B485B082
:1005A00000AF03460A46FB711346BB710123FB7380
:1005B000144B002B1DD0BB79002B0CD0012B15D177
:1005C000104B1B68FA79012101FA02F211460D4A1B
:1005D0000B4313600FE00B4B1B68FA79012101FA02
:1005E00002F21146074A0B40136004E00023FB733C
:1005F00001E00023FB73FB7B18461437BD4680BC2B
:10060000704700BF003C014080B483B000AF0023BE
:100610007B6002E07B6801337B607B68044A934225
:10062000F8DD00BF00BF0C37BD4680BC704700BF7F
:10063000DF93040080B483B000AF02E07B68013335
:100640007B607B68044A9342F8DD00BF00BF0C3733
:10065000BD4680BC704700BF8FD0030084B080B51A
:1006600088B000AF07F1280C8CE80F000023FB6175
:10067000BB6AFB76FB6ABB763B6B7B763B6B3B7660
:10068000BB6BFB75FB6BBB7501237B75FB7E082B7E
:1006900003D900237B757B7DADE1FB7E01211846EC
:1006A00000F06EFA7B7E032B24D87A7EBB7E5B0043
:1006B00002FA03F3FB61FB7E604A52F823301A68AA
:1006C000BB7E5B00032101FA03F3DB431846FB7E8C
:1006D0005A4951F8233002401A60FB7E574A52F8BB
:1006E00023301968FB7E554A52F82330FA690A43D1
:1006F0001A60D4E07B7E042B15D1514BDB68BA7EA7
:10070000012101FA02F211464D4A0B43D3604C4BD2
:100710009B68BA7E012101FA02F2D2431146484A8F
:100720000B4093602FE07B7E052B15D1444B9B68DB
:10073000BA7E012101FA02F21146414A0B4393604D
:100740003F4BDB68BA7E012101FA02F2D243114627
:100750003B4A0B40D36016E07B7E062B13D1384B0F
:10076000DB68BA7E012101FA02F21146344A0B43DA
:10077000D360334B9B68BA7E012101FA02F2114625
:100780002F4A0B439360BB7E9B08DBB23B61BB7E71
:100790009BB203F00303FB81FB7E284A52F823300F
:1007A000284A934260D0FB7E244A52F82330264ADE
:1007B000934240D0FB7E214A52F82330234A934291
:1007C00037D0FB7E1D4A52F82330214A93422ED067
:1007D000FB7E1A4A52F823301E4A934225D0FB7EF4
:1007E000164A52F823301C4A93421CD0FB7E134A0F
:1007F00052F82330194A934213D0FB7E0F4A52F825
:100800002330174A93420AD0FB7E0C4A52F8233019
:10081000144A934201D1082327E0002325E007234F
:1008200023E0062321E005231FE004231DE003232A
:100830001BE0022319E0012317E000BF141D00088C
:10084000003C014000000240000402400008024059
:10085000000C024000100240001402400018024048
:10086000001C0240002002400023BB81654B5B6CF2
:10087000644A43F480435364BA89FB899B0062490C
:100880009A403B69023341F82320604B1B68BA7ED3
:10089000012101FA02F211465C4A0B431360002366
:1008A000FB613A7EBB7E5B0002FA03F3FB61FB7ED9
:1008B000574A52F823309A68BB7E5B00032101FA45
:1008C00003F3DB431846FB7E514951F823300240C5
:1008D0009A60FB7E4E4A52F823309968FB7E4C4A60
:1008E00052F82330FA690A439A600023FB61FA7DCB
:1008F000BB7E5B0002FA03F3FB61FB7E444A52F8C5
:100900002330DA68BB7E5B00032101FA03F3DB438B
:100910001846FB7E3E4951F823300240DA60FB7EE8
:100920003B4A52F82330D968FB7E394A52F82330CB
:10093000FA690A43DA600023FB61BA7DBB7E02FAE2
:1009400003F3FB61FB7E324A52F823305A68BB7EC8
:10095000032101FA03F3DB431846FB7E2C4951F8CF
:10096000233002405A60FB7E294A52F823305968EE
:10097000FB7E274A52F82330FA690A435A60002363
:10098000FB617B7E022B35D1BB7EDB08DBB2BB601B
:10099000BB7E03F007037B60FB7E1D4A52F82330C9
:1009A000BA68083253F822207B689B000F2101FAB5
:1009B00003F3DB431846FB7E154951F8233002EA66
:1009C0000001BA68083243F82210FB7E104A52F840
:1009D0002330BA68083253F822103A6C7B689B00C7
:1009E0009A40FB7E0A4850F823301143BA68083217
:1009F00043F822107B7D18462037BD46BDE8804075
:100A000004B070470038024000380140003C01400B
:100A1000141D000880B485B000AF03460A46FB7180
:100A20001346BB710123FB73FB790A4A52F823304A
:100A30005A69BB79012101FA03F31846FB7905498C
:100A400051F8233042405A61FB7B18461437BD46AB
:100A500080BC7047141D000880B485B000AF034609
:100A6000FB800123FB730E4B5B69FA88012101FABD
:100A700002F21340002B0AD0094B5B69FA8801216E
:100A800001FA02F21146064A0B43536101E00023CA
:100A9000FB73FB7B18461437BD4680BC704700BF14
:100AA000003C014080B485B000AF03463960FB7163
:100AB0001346BB710123FB73FB791B4A52F82330A9
:100AC000002B29D0BB79002B12D0012B21D1FB792F
:100AD000154A52F823301A6801213B6801FA03F3E2
:100AE0001846FB79104951F8233002431A6015E08B
:100AF000FB790D4A52F823301A6801213B6801FA4C
:100B000003F31846FB79084951F8233002401A6074
:100B100004E00023FB7301E00023FB73FB7B18461A
:100B20001437BD4680BC7047381D000880B485B0BE
:100B300000AF0346FB710123FB73104B002B15D054
:100B4000FB79002B08D0012B0DD10C4B5B6C0B4AB1
:100B500043F4804353640BE0084B5B6C074A23F477
:100B60008043536404E00023FB7301E00023FB7324
:100B7000FB7B18461437BD4680BC704700380240E6
:100B800080B485B000AF03460A46FB711346BB71C3
:100B90000123FB73BB79002B0CD0012B16D1104B1A
:100BA0001B6BFA79012101FA02F211460C4A0B4340
:100BB00013630EE00A4B1B6BFA79012101FA02F272
:100BC000D2431146064A0B40136302E00023FB7335
:100BD00000BFFB7B18461437BD4680BC704700BF82
:100BE000003802400D488546AFF300800C480D499F
:100BF0000D4A002302E0D458C4500433C4188C4278
:100C0000F9D30A4A0A4C002301E013600432A242DD
:100C1000FBD300F017F8FFF73BFBFEE700000220D4
:100C20000000002064000020FC1D0008640000207B
:100C3000A0000020FEE70000014B1868704700BFCD
:100C40000000002070B50D4D0D4C641BA410002653
:100C5000A64209D10B4D0C4C01F01CF8641BA410EA
:100C60000026A64205D170BD55F8043B98470136D1
:100C7000EEE755F8043B98470136F2E7F41D00080B
:100C8000F41D0008F41D0008F81D00080244034686
:100C9000934200D1704703F8011BF9E70FB40A4BE8
:100CA00013B51C6824B1A36913B9204600F05AFAA1
:100CB00005AB049AA1680193204600F05FFC02B0E6
:100CC000BDE8104004B070470000002070B50E462B
:100CD000054618B183690BB900F044FAAB69AC68FA
:100CE00013B9284600F03EFA2C4B9C4220D16C6888
:100CF000636EDB0705D4A389980502D4A06D00F0CC
:100D0000CFFAA38919071DD52369DBB1013EA3687A
:100D100016F8011F013BA36039BB002B38DA2246CD
:100D20000A21284600F048F8013011D00A2511E0C8
:100D30001B4B9C4201D1AC68DAE71A4B9C4208BFBE
:100D4000EC68D5E72146284600F088F80028DDD079
:100D50004FF0FF35636EDA0705D4A3899B0502D4F3
:100D6000A06D00F09EFA284670BD002B04DAA2693F
:100D70009A4206DC0A2904D023685A1C22601970A2
:100D8000C5E72246284600F017F80130BFD1DFE75B
:100D900023680A255A1C22601D70DBE7801D0008AD
:100DA000A01D0008601D0008024B01461868FFF7EF
:100DB0008DBF00BF00000020F8B50E461446054662
:100DC00018B183690BB900F0CDF9214B9C422BD1AE
:100DD0006C68A369A360A3891A072FD523696BB335
:100DE00023692068C01A6369F6B28342374604DC7F
:100DF0002146284600F022F930BBA368013BA360DE
:100E000023685A1C22601E7063690130834204D03B
:100E1000A389DB0706D50A2E04D12146284600F017
:100E20000DF988B93846F8BD0A4B9C4201D1AC682F
:100E3000CFE7094B9C4208BFEC68CAE72146284629
:100E400000F00CF80028CBD04FF0FF37EAE700BFE6
:100E5000801D0008A01D0008601D0008324B70B501
:100E60001D6806460C4625B1AB6913B9284600F04B
:100E700079F92E4B9C420FD16C68A389B4F90C20F0
:100E800019072CD4DD0611D40923336042F0400346
:100E9000A3814FF0FF303EE0254B9C4201D1AC686E
:100EA000EBE7244B9C4208BFEC68E6E7580712D5F5
:100EB000616B41B104F14403994202D0304600F025
:100EC00057FA00236363A38923F02403A38100233B
:100ED000636023692360A38943F00803A381236926
:100EE0004BB9A38903F42073B3F5007F03D02146E7
:100EF000304600F0FDF9A089B4F90C2010F0010390
:100F00000AD00023A36063695B42A361236943B9EC
:100F100010F08000BAD170BD810758BF6369A3602B
:100F2000F4E70020F7E700BF00000020801D000864
:100F3000A01D0008601D00088A89F8B50546100745
:100F40000C4657D44B68002B04DC0B6C002B01DCE7
:100F50000020F8BDE66A002EFAD0002312F4805279
:100F60002F682B6032D0606DA3895A0705D563685E
:100F7000C01A636B0BB1236CC01A00230246E66AE9
:100F8000216A2846B047431CA38906D129681D2938
:100F90002CD8294ACA40D60728D500226260D90435
:100FA0002269226004D5421C01D12B6803B9606517
:100FB000616B2F600029CBD004F14403994202D029
:100FC000284600F0D5F900206063C2E7216A0123BA
:100FD0002846B047411CC7D12B68002BC4D01D2B1D
:100FE00001D0162B01D12F60B2E7A38943F0400353
:100FF000A381AEE70F69002FAAD093070E6808BF40
:101000004B690F6018BF0023F61B8B60002E9FDD1D
:10101000216AD4F828C033463A462846E0470028DB
:1010200006DCA38943F04003A3814FF0FF3090E733
:101030000744361AEAE700BF0100402038B50B69C3
:1010400005460C4613B90025284638BD18B18369FA
:101050000BB900F087F8144B9C421BD16C68B4F9B3
:101060000C30002BEFD0626ED00704D4990502D467
:10107000A06D00F015F928462146FFF75DFF636E6D
:10108000DA070546E0D4A3899B05DDD4A06D00F006
:1010900008F9D9E7054B9C4201D1AC68DFE7044B66
:1010A0009C4208BFEC68DAE7801D0008A01D00081C
:1010B000601D0008002310B50446C0E90033C0E9F4
:1010C0000433836081814366C281836119460822AB
:1010D0005C30FFF7DBFD054B6362054BA362054BFC
:1010E000E362054B2462236310BD00BF251B00088B
:1010F000471B00087F1B0008A31B0008014900F0E4
:10110000AFB800BF3D10000870B568224D1E5543B2
:101110000E4605F1740100F095F9044640B1002136
:10112000C0E900160C30A06005F16802FFF7AEFDC3
:10113000204670BD014800F0B3B800BF9100002008
:10114000014800F0AEB800BF91000020014800F057
:10115000A7B800BF92000020014800F0A2B800BF6D
:101160009200002010B50446FFF7F0FFA3691BB101
:10117000BDE81040FFF7F0BFC4E912332365134BFD
:10118000134A1B68A262A34204BF0123A361204645
:1011900000F020F86060204600F01CF8A0602046B7
:1011A00000F018F80022E06004216068FFF782FF79
:1011B000A06801220921FFF77DFFE06802221221C9
:1011C000FFF778FF0123A361D2E700BF5C1D000891
:1011D000FD100008F8B50746FFF7ACFF1E4B1E6870
:1011E000B36913B93046FFF7BDFF4836D6E901347D
:1011F000013B03D533680BB33668F7E7B4F90C50FD
:10120000D5B9164BE36004F15800656600F047F865
:10121000FFF796FFC4E90155C4E904552560A561AF
:101220000822294604F15C00FFF730FDC4E90D55A2
:10123000C4E912552046F8BD6834D9E70421384680
:10124000FFF762FF044630600028D5D1FFF778FF32
:101250000C233B60EEE700BF5C1D00080100FFFFB0
:101260002DE9F8430646884600F148040027D4E9F2
:101270000195B9F1010905D52468002CF7D138464C
:10128000BDE8F883AB89012B07D9B5F90E300133DE
:1012900003D029463046C04707436835E9E7704721
:1012A0007047704770B50E46B1F90E10002996B020
:1012B00014461D4608DAB6F90C3000222A601A06D8
:1012C00010D44FF480630EE06A4600F091FC0028D1
:1012D000F1DB019A02F47042A2F500535A425A41DE
:1012E0002A60EEE740230020236016B070BD0000A6
:1012F0008B8973B59D0706460C4607D504F1470355
:10130000236023610123636102B070BD01AB6A46B3
:10131000FFF7C8FF00990546304600F093F848B93A
:10132000B4F90C309A05EFD423F0030343F0020321
:10133000A381E3E70D4BB362A389206043F08003F0
:10134000A381009B6361019B20615BB1B4F90E1026
:10135000304600F05FFC28B1A38923F0030343F07B
:101360000103A381A0890543A581CDE7FD100008F5
:1013700038B50546002941D051F8043C0C1F002B1C
:10138000B8BFE41800F068FC1D4A136833B9636005
:1013900014602846BDE8384000F064BCA34208D978
:1013A000206821188B4201BF19685B680918216009
:1013B000EDE71A465B680BB1A342FAD911685018E1
:1013C000A0420BD120680144501883421160E0D143
:1013D00018685B68536001441160DAE702D90C2396
:1013E0002B60D6E7206821188B4204BF19685B6820
:1013F000636004BF091821605460CAE738BD00BFAC
:101400009400002070B50E4E0C463168054611B9A7
:1014100000F078FB30602146284600F073FB431C47
:101420000AD0C41C24F00304A04207D0211A284685
:1014300000F068FB013001D14FF0FF34204670BD51
:10144000980000202DE9F041CD1C25F0030508355A
:101450000C2D38BF0C25002D074601DBA94205D90C
:101460000C233B6000263046BDE8F0812E4E00F094
:10147000F3FB33681C4634BB29463846FFF7C2FFEE
:10148000431C04464DD134682646002E40D12368C3
:101490003146384604EB030800F034FB80453AD16E
:1014A000216803356D1A25F0030508350C2D38BF6A
:1014B0000C2529463846FFF7A5FF01302BD02368BD
:1014C0002B4423600EE02268521B1ED40B2A16D92F
:1014D0006119A342256018BF5960636808BF316075
:1014E00062514B60384604F10B0600F0BBFB26F05E
:1014F0000706231DF21AB6D09B1BA350B3E7626800
:10150000A3420CBF32605A60ECE723466468B2E73E
:1015100034467668B9E70C233B60384600F0A2FBFE
:10152000A1E72560DEE700BF940000209368013B3F
:10153000002B10B4936007DA9469A34201DB0A29F7
:1015400002D110BCFFF738BC1368581C106019702A
:10155000084610BC7047F8B506460F461446D51825
:10156000AC4201D1002007E014F8011B3A46304696
:10157000FFF7DCFF431CF3D1F8BD00002DE9F04F6D
:101580000D469DB014469846064618B183690BB9BE
:10159000FFF7E8FD894B9D421BD175686B6ED9073B
:1015A00005D4AB899A0502D4A86DFFF779FEAB8903
:1015B0001B0701D52B69EBB929463046FFF74EFCD6
:1015C000C0B16B6EDC070ED54FF0FF301DB0BDE82B
:1015D000F08F7B4B9D4201D1B568DFE7794B9D428F
:1015E00008BFF568DAE7AB899805EDD4A86DFFF779
:1015F00058FEE9E70023099320238DF82930CDF820
:101600000C803023DFF8C0818DF82A304FF00109BB
:1016100023469A4613F8012B0AB1252AF9D1BAEBD1
:10162000040B0BD05B46224629463046FFF793FF5A
:10163000013000F0AA80099A5A4409929AF80030C1
:10164000002B00F0A28000234FF0FF32CDE90523EC
:101650000AF1010A049307938DF853301A93544604
:10166000052214F8011B5848FEF7C2FD049AD8B9A8
:10167000D10644BF20238DF85330130744BF2B23DA
:101680008DF853309AF800302A2B15D0079A54461B
:1016900000204FF00A0C214611F8013B303B092B8A
:1016A0004ED9B0B1079214E0A0EB080309FA03F396
:1016B00013430493A246D2E7039B191D1B680391B1
:1016C000002BBBBF5B4242F0020207930793B8BFF7
:1016D000049223782E2B0CD163782A2B35D1039BCF
:1016E0001A1D1B680392002BB8BF4FF0FF33023462
:1016F0000593DFF8D8A0217803225046FEF778FD45
:1017000040B14023A0EB0A0003FA00F0049B03431E
:101710000134049314F8011B2D488DF8281006227B
:10172000FEF766FD00283FD02A4B1BBB039B073307
:1017300023F0070308330393099B3B44099367E7AE
:101740000CFB02320C460120A5E70023013405936F
:1017500019464FF00A0C204610F8012B303A092A9E
:1017600003D9002BC5D00591C3E70CFB012104462A
:101770000123F0E703AB00932A46174B04A9304638
:10178000AFF300800746781CD6D16B6ED90705D41D
:10179000AB899A0502D4A86DFFF783FDAB895B0680
:1017A0003FF512AF099811E703AB00932A460A4BA5
:1017B00004A9304600F080F8E4E700BF801D00086F
:1017C000A01D0008601D0008C01D0008C61D0008FF
:1017D000CA1D000800000000571500082DE9F04759
:1017E000164699468A680B69DDF820809342B8BF97
:1017F0001346336091F8432007460C460AB1013383
:1018000033602368990642BF33680233336025682A
:1018100015F0060506D104F1190AE36832689B1A2F
:10182000AB4226DC94F84320131E226818BF012324
:1018300092062BD404F1430249463846C047013092
:101840001ED02368E568326803F00603042B08BF46
:10185000AD1AA36822690CBF25EAE57500259342FD
:10186000C4BF9B1AED1800261A34B5421AD10020C5
:1018700008E00123524649463846C047013003D1AB
:101880004FF0FF30BDE8F0870135C6E7E1185A1C7C
:10189000302081F84300224494F8451082F8431028
:1018A0000233C7E70123224649463846C047013084
:1018B000E6D00136D9E700002DE9FF470F7E0C9DE9
:1018C000782F914680460C469A4601F1430207D88C
:1018D000622F0AD8002F00F0D880582F00F0A38084
:1018E00004F1420584F842703AE0A7F16303152B36
:1018F000F6D801A151F823F0511900086519000824
:10190000E1180008E1180008E1180008E1180008D3
:1019100065190008E1180008E1180008E11800083E
:10192000E1180008711A000895190008531A0008F8
:10193000E1180008E1180008931A0008E1180008EF
:1019400095190008E1180008E11800085B1A000862
:101950002B681A1D1B682A6004F1420584F8423086
:101960000123A3E020682968060601F104030AD5D3
:101970000E682B60002E03DA2D23764284F8433064
:101980005E480A2319E00E682B6010F0400F18BF64
:1019900036B2EFE72B682068191D2960010601D5D2
:1019A0001E6802E04606FBD51E8854486F2F0CBF08
:1019B00008230A23002184F843106568A560002DE0
:1019C000A2BF216821F0040121600EB9002D4DD085
:1019D0001546B6FBF3F103FB1167C75D05F8017D02
:1019E0003746BB420E46F4D9082B0BD12368DE07DD
:1019F00008D5236961689942DEBF302305F8013CB0
:101A000005F1FF35521B2261CDF800A04B4603AA19
:101A100021464046FFF7E2FE01304CD14FF0FF3047
:101A200004B0BDE8F087354881F84570296823681F
:101A300051F8046B29601D0614D5DF0744BF43F03D
:101A4000200323601EB9236823F0200323601023A2
:101A5000B0E7236843F0200323607823284884F804
:101A60004530E3E7590648BFB6B2E6E71546BBE79F
:101A70002B6826686169181D286035061B6801D52A
:101A8000196002E07006FBD519800023236115461A
:101A9000BAE72B681A1D2A601D6862680021284673
:101AA000FEF7A6FB08B1401B60606368236100235A
:101AB00084F84330A8E723692A4649464046D04780
:101AC0000130ABD023689B0713D4E068039B984296
:101AD000B8BF1846A4E70123324649464046D047DE
:101AE00001309BD00135E36803995B1AAB42F2DC0D
:101AF000EBE7002504F11906F5E700BFD11D00084A
:101B0000E21D000838B5064D0023044608462B6048
:101B1000FEF70EFD431C02D12B6803B1236038BDD4
:101B20009C00002010B50C46B1F90E1000F0A0F892
:101B30000028ABBF636DA3891B1823F48053ACBF8F
:101B40006365A38110BD2DE9F0411F468B89DB053C
:101B500005460C46164605D5B1F90E1002230022A3
:101B600000F068F8A389B4F90E1023F48053A38120
:101B700032463B462846BDE8F04100F017B810B5A4
:101B80000C46B1F90E1000F055F8431CA38915BF9F
:101B9000606523F4805343F48053A38118BFA3816D
:101BA00010BDB1F90E1000F013B8000038B5074DA4
:101BB00004460846114600222A601A46FEF76BFCCE
:101BC000431C02D12B6803B1236038BD9C00002068
:101BD00038B5064D0023044608462B60FEF777FC17
:101BE000431C02D12B6803B1236038BD9C00002048
:101BF00038B5074D00230446084611462B60FEF712
:101C000071FC431C02D12B6803B1236038BD00BFB7
:101C10009C00002038B5064D0023044608462B6082
:101C2000FEF76FFC431C02D12B6803B1236038BD63
:101C30009C00002038B5074D044608461146002296
:101C40002A601A46FEF767FC431C02D12B6803B1D9
:101C5000236038BD9C0000200148FFF721BB00BF76
:101C6000900000200148FFF71CBB00BF900000203F
:101C700038B5074D04460846114600222A601A4628
:101C8000FEF7ECFB431C02D12B6803B1236038BD87
:101C90009C000020F8B500BFF8BC08BC9E46704709
:0C1CA000F8B500BFF8BC08BC9E467047B9
:101CAC0077616974696E6720746F207072657373E5
:101CBC002074686520427574746F6E00427574747C
:101CCC006F6E2069732070726573736564203A209F
:101CDC00256C750A0000000054686520455854496D
:101CEC003020496E7465727275707420686173204F
:101CFC006265656E206578656375746564203A204D
:101D0C0025642021210A000000000240000402404A
:101D1C0000080240000C0240001002400014024077
:101D2C0000000000000000000000000000E100E0E6
:101D3C0004E100E008E100E00CE100E010E100E06B
:101D4C0014E100E018E100E01CE100E000000000FC
:101D5C000400002000000000000000000000000053
:101D6C000000000000000000000000000000000067
:101D7C000000000000000000000000000000000057
:101D8C000000000000000000000000000000000047
:101D9C000000000000000000000000000000000037
:101DAC000000000000000000000000000000000027
:101DBC0000000000232D302B2000686C4C00656661
:101DCC006745464700303132333435363738394180
:101DDC004243444546003031323334353637383996
:081DEC0061626364656600009A
:041DF400D50100080D
:041DF800B10100082D
:101DFC000400002000000000801D0008A01D000849
:101E0C00601D000800000000000000000000000041
:101E1C0000000000000000000000000000000000B6
:101E2C0000000000000000000000000000000000A6
:101E3C000000000000000000000000000000000096
:101E4C000000000000000000000000000000000086
:041E5C000000000082
:0400000508000BE5FF
:00000001FF
