:020000040800F2
:1000000000000220050800085508000855080008EF
:1000100055080008550800085508000800000000B1
:10002000000000000000000000000000550800086B
:100030005508000800000000550800085508000891
:10004000550800085508000855080008550800081C
:100050000000000055080008550800085508000871
:1000600055080008550800085508000855080008FC
:1000700055080008550800085508000855080008EC
:1000800055080008550800085508000855080008DC
:1000900055080008550800085508000855080008CC
:1000A00055080008550800085508000855080008BC
:1000B00055080008550800085508000855080008AC
:1000C000550800085508000855080008550800089C
:1000D000550800085508000855080008550800088C
:1000E000550800085508000855080008550800087C
:1000F000550800085508000855080008550800086C
:10010000550800085508000855080008550800085B
:10011000550800085508000855080008550800084B
:10012000550800085508000855080008550800083B
:10013000550800085508000855080008550800082B
:10014000550800085508000855080008550800081B
:10015000550800085508000855080008550800080B
:1001600055080008550800085508000855080008FB
:1001700055080008550800085508000855080008EB
:1001800055080008550800080000000000000000A5
:10019000000000000000000000000000000000005F
:0801A00055080008550800088D
:1001A80010B5054C237833B9044B13B10448AFF3A9
:1001B80000800123237010BD000000200000000013
:1001C800A008000808B5034B1BB103490348AFF367
:1001D800008008BD0000000004000020A0080008FE
:1001E80090B58DB004AF01237B7703233B600C23CC
:1001F8007B600123BB600223FB6000233B6100237B
:100208007B616C4607F1100393E8070084E8070058
:100218003B460FCB00F084F80D237B606C4607F15A
:10022800100393E8070084E807003B460FCB00F073
:1002380077F80E237B606C4607F1100393E80700FC
:1002480084E807003B460FCB00F06AF80F237B6079
:100258006C4607F1100393E8070084E807003B4663
:100268000FCB00F05DF80C23BB7700F043F80023B8
:10027800FB770CE0BB7F1946032000F02DFA00F055
:1002880039F8BB7F0133BB77FB7F0133FB77FB7FFB
:10029800032BEFD90023FB7728E000F02BF80C2381
:1002A800BB770DE0BB7F00221946032000F036FA29
:1002B80003467B777B7F01337B77BB7F0133BB773B
:1002C800BB7F0F2BEED900F015F80C23BB7707E0A6
:1002D800BB7F1946032000F0FFF9BB7F0133BB77D2
:1002E800BB7F0F2BF4D9FB7F0133FB77FB7F032BFD
:1002F800D3D9B8E780B483B000AF00237B6002E0B5
:100308007B6801337B607B68044A9342F8DD00BF59
:1003180000BF0C37BD4680BC704700BFDF930400A8
:1003280084B080B588B000AF07F1280C8CE80F00C6
:100338000023FB61BB6AFB76FB6ABB763B6B7B7673
:100348003B6B3B76BB6BFB75FB6BBB75FB7E012187
:10035800184600F021FA01237B75FB7E082B03D990
:1003680000237B757B7DA8E17B7E032B24D87A7ED6
:10037800BB7E5B0002FA03F3FB61FB7E604A52F826
:1003880023301A68BB7E5B00032101FA03F3DB43C9
:100398001846FB7E5A4951F8233002401A60FB7E0A
:1003A800574A52F823301968FB7E554A52F82330D1
:1003B800FA690A431A60D4E07B7E042B15D1514BAD
:1003C800DB68BA7E012101FA02F211464D4A0B435D
:1003D800D3604C4B9B68BA7E012101FA02F2D243EA
:1003E8001146484A0B4093602FE07B7E052B15D1C0
:1003F800444B9B68BA7E012101FA02F21146414A38
:100408000B4393603F4BDB68BA7E012101FA02F28D
:10041800D24311463B4A0B40D36016E07B7E062B45
:1004280013D1384BDB68BA7E012101FA02F211467A
:10043800344A0B43D360334B9B68BA7E012101FADF
:1004480002F211462F4A0B439360BB7E9B08DBB236
:100458003B61BB7E9BB203F00303FB81FB7E284A12
:1004680052F82330284A934260D0FB7E244A52F83F
:100478002330264A934240D0FB7E214A52F823304B
:10048800234A934237D0FB7E1D4A52F82330214A33
:1004980093422ED0FB7E1A4A52F823301E4A9342CA
:1004A80025D0FB7E164A52F823301C4A93421CD0B2
:1004B800FB7E134A52F82330194A934213D0FB7E2D
:1004C8000F4A52F82330174A93420AD0FB7E0C4A4F
:1004D80052F82330144A934201D1082327E000231D
:1004E80025E0072323E0062321E005231FE004235A
:1004F8001DE003231BE0022319E0012317E000BFDE
:10050800B8080008003C0140000002400004024016
:1005180000080240000C0240001002400014024093
:1005280000180240001C0240002002400023BB814A
:10053800654B5B6C644A43F480435364BA89FB8916
:100548009B0062499A403B69023341F82320604B83
:100558001B68BA7E012101FA02F211465C4A0B437C
:1005680013600023FB613A7EBB7E5B0002FA03F353
:10057800FB61FB7E574A52F823309A68BB7E5B00CA
:10058800032101FA03F3DB431846FB7E514951F876
:10059800233002409A60FB7E4E4A52F82330996815
:1005A800FB7E4C4A52F82330FA690A439A600023CA
:1005B800FB61FA7DBB7E5B0002FA03F3FB61FB7E05
:1005C800444A52F82330DA68BB7E5B00032101FA03
:1005D80003F3DB431846FB7E3E4951F823300240C3
:1005E800DA60FB7E3B4A52F82330D968FB7E394AF1
:1005F80052F82330FA690A43DA600023FB61BA7DB6
:10060800BB7E02FA03F3FB61FB7E324A52F82330C9
:100618005A68BB7E032101FA03F3DB431846FB7ECD
:100628002C4951F8233002405A60FB7E294A52F87F
:1006380023305968FB7E274A52F82330FA690A4367
:100648005A600023FB617B7E022B35D1BB7EDB0821
:10065800DBB2BB60BB7E03F007037B60FB7E1D4AF9
:1006680052F82330BA68083253F822207B689B007E
:100678000F2101FA03F3DB431846FB7E154951F8B5
:10068800233002EA0001BA68083243F82210FB7EE0
:10069800104A52F82330BA68083253F822103A6CDC
:1006A8007B689B009A40FB7E0A4850F82330114330
:1006B800BA68083243F822107B7D18462037BD46B9
:1006C800BDE8804004B0704700380240003801405F
:1006D800003C0140B808000880B485B000AF03466C
:1006E8000A46FB711346BB710123FB73FB790A4A67
:1006F80052F823305A69BB79012101FA03F31846ED
:10070800FB79054951F8233042405A61FB7B184672
:100718001437BD4680BC7047B808000880B485B05F
:1007280000AF0346FB710B46BB7113467B71012377
:10073800FB737B79002B12D0012B22D1FB79154A50
:1007480052F823305A69BB79012101FA03F318469C
:10075800FB79104951F8233002435A6114E0FB79C0
:100768000C4A52F823305A69BB79012101FA03F384
:10077800DB431846FB79074951F8233002405A6198
:1007880002E00023FB7300BFFB7B18461437BD460D
:1007980080BC7047B808000880B485B000AF034635
:1007A8000A46FB711346BB710123FB73BB79002B0F
:1007B8000CD0012B16D1104B1B6BFA79012101FAD1
:1007C80002F211460C4A0B4313630EE00A4B1B6BF3
:1007D800FA79012101FA02F2D2431146064A0B4086
:1007E800136302E00023FB7300BFFB7B184614373A
:1007F800BD4680BC704700BF003802400D488546A2
:10080800AFF300800C480D490D4A002302E0D4588C
:10081800C4500433C4188C42F9D30A4A0A4C002342
:1008280001E013600432A242FBD300F011F8FFF795
:10083800D7FCFEE700000220000000200000002096
:10084800E4080008000000201C000020FEE700006B
:1008580070B50D4D0D4C641BA4100026A64209D19D
:100868000B4D0C4C00F018F8641BA4100026A6428F
:1008780005D170BD55F8043B98470136EEE755F8A9
:10088800043B98470136F2E7DC080008DC0800085A
:10089800DC080008E0080008F8B500BFF8BC08BC90
:1008A8009E467047F8B500BFF8BC08BC9E46704726
:1008B800000002400004024000080240000C024010
:1008C8000010024000140240000000000000000078
:0408D800000000001C
:0408DC00CD01000842
:0408E000A901000862
:0400000508000805E2
:00000001FF
