:020000040800F2
:1000000000000220DD0300082D0400082D04000874
:100010002D0400082D0400082D0400080000000035
:100020000000000000000000000000002D04000897
:100030002D040008000000002D0400082D04000815
:100040002D0400082D0400082D0400082D040008CC
:10005000000000002D0400082D0400082D040008F5
:100060002D0400082D0400082D0400082D040008AC
:100070002D0400082D0400082D0400082D0400089C
:100080002D0400082D0400082D0400082D0400088C
:100090002D0400082D0400082D0400082D0400087C
:1000A0002D0400082D0400082D0400082D0400086C
:1000B0002D0400082D0400082D0400082D0400085C
:1000C0002D0400082D0400082D0400082D0400084C
:1000D0002D0400082D0400082D0400082D0400083C
:1000E0002D0400082D0400082D0400082D0400082C
:1000F0002D0400082D0400082D0400082D0400081C
:100100002D0400082D0400082D0400082D0400080B
:100110002D0400082D0400082D0400082D040008FB
:100120002D0400082D0400082D0400082D040008EB
:100130002D0400082D0400082D0400082D040008DB
:100140002D0400082D0400082D0400082D040008CB
:100150002D0400082D0400082D0400082D040008BB
:100160002D0400082D0400082D0400082D040008AB
:100170002D0400082D0400082D0400082D0400089B
:100180002D0400082D0400080000000000000000FD
:10019000000000000000000000000000000000005F
:0801A0002D0400082D040008E5
:1001A80010B5054C237833B9044B13B10448AFF3A9
:1001B80000800123237010BD000000200000000013
:1001C8007804000808B5034B1BB103490348AFF393
:1001D800008008BD0000000004000020780400082A
:1001E80080B483B000AF00237B6002E07B680133FA
:1001F8007B607B68044A9342F8DD00BF00BF0C3780
:10020800BD4680BC704700BFDF93040080B485B052
:1002180000AF03460A46FB711346BB710123FB730B
:10022800FB790A4A52F823301A68BB79012101FA8E
:1002380003F31846FB79054951F8233042401A6008
:10024800FB7B18461437BD4680BC704790040008F5
:1002580080B586B000AF5A4B1A681368012161F364
:1002680056531360564B1A6813686FF3565313604E
:10027800544B3B613A69136843F001031360524BD6
:10028800DB68FB60514BDB68BB60514BDB687B6014
:10029800FA68136843F008031360BA6813686FF3C9
:1002A80019631360BA681368012161F31963136055
:1002B800BA6813686FF39B631360BA681368012107
:1002C80061F39B631360BA6813686FF31D7313605F
:1002D800BA681368012161F31D731360BA68136863
:1002E8006FF39F731360BA681368012161F39F73FA
:1002F800136000237B613EE07B681B68C3F3003317
:10030800DBB283F00103D9B27A68136861F30C3366
:100318001360FFF765FF7B681B68C3F34033DBB2EC
:1003280083F00103D9B27A68136861F34D3313601F
:10033800FFF756FF7B681B68C3F38033DBB283F09B
:100348000103D9B27A68136861F38E331360FFF73B
:1003580047FF7B681B68C3F3C033DBB283F001033C
:10036800D9B27A68136861F3CF331360FFF738FFA7
:100378007B6901337B617B69012BBDDD00237B61D8
:1003880019E07B6800221A60FFF72AFF0C2103207E
:10039800FFF73CFF0D210320FFF738FF0E21032054
:1003A800FFF734FF0F210320FFF730FFFFF718FF97
:1003B8007B6901337B617B69032BE2DD99E700BF31
:1003C800FC04000800380240D8040008B4040008FF
:1003D800900400080D488546AFF300800C480D498D
:1003E8000D4A002302E0D458C4500433C4188C4288
:1003F800F9D30A4A0A4C002301E013600432A242EE
:10040800FBD300F011F8FFF723FFFEE700000220FE
:10041800000000200000002028050008000000203F
:100428001C000020FEE7000070B50D4D0D4C641B4C
:10043800A4100026A64209D10B4D0C4C00F018F868
:10044800641BA4100026A64205D170BD55F8043BD4
:1004580098470136EEE755F8043B98470136F2E72E
:1004680020050008200500082005000824050008CC
:10047800F8B500BFF8BC08BC9E467047F8B500BF89
:08048800F8BC08BC9E46704759
:10049000140002401404024014080240140C0240EC
:1004A000141002401414024000000000000000007C
:1004B000000000000000024000040240000802406A
:1004C000000C024000100240001402400000000036
:1004D00000000000000000003038024030380240C8
:1004E0003038024030380240303802403038024064
:1004F000000000000000000000000000083802407A
:1005000000000000000000000000000000000000EB
:1005100000000000000000000000000000000000DB
:04052000CD01000801
:04052400A901000821
:04000005080003DD0F
:00000001FF
